:100000000C9434000C9446000C9446000C94160199
:100010000C9446000C940C010C9446000C94460081
:100020000C9446000C9446000C9446000C94460038
:100030000C9446000C9446000C9446000C94460028
:100040000C9446000C9446000C9402010C9446005B
:100050000C9446000C9446000C9446000C94460008
:100060000C9446000C94460011241FBECFEFD8E03C
:10007000DEBFCDBF21E0A0E0B1E001C01D92AA30FB
:10008000B207E1F70E9453020C9450030C94000055
:1000900084EA8093BC008091BC0087FFFCCF089568
:1000A000680F6093BB0084E88093BC008091BC0023
:1000B00087FFFCCF08958093BB0084E88093BC0049
:1000C0008091BC0087FFFCCF089584E88093BC003A
:1000D0008091BC0087FFFCCF8091BB00089584E82D
:1000E0008093BC008091BC0087FFFCCF8091BB0057
:1000F000089584E98093BC00089514B884B18661A2
:1001000084B9239A259A84B1806C84B915B8289A49
:1001100017B887B1806387B918B888B18C6088B97F
:10012000469A1AB8519A8AB18C608AB98AB18067A6
:100130008AB91BB85F9A0895E8E6F0E0808185608F
:100140008083EDE6F0E0808180688083EBE6F0E07C
:100150008081816080837894089584B5836A84BDAA
:1001600085B5816085BD17BC18BCE0EBF0E08081EF
:10017000836A8083E1EBF0E080818160808310926C
:10018000B3001092B400089580E28093B80084E038
:100190008093BC0008951092C50083E38093C4004F
:1001A000E1ECF0E0808188698083E2ECF0E080811E
:1001B000866080830895ECE7F0E08081806480832E
:1001C000EAE7F0E0808186688083089581E080938B
:1001D0000501109207011092030110920201109282
:1001E00004011092090108950E947D000E94E6001A
:1001F0000E94AD000E94C4000E94CB000E94DB0060
:100200000C949C001F920F920FB60F9211240F9026
:100210000FBE0F901F9018951F920F920FB60F925E
:1002200011240F900FBE0F901F9018951F920F92E0
:100230000FB60F9211240F900FBE0F901F901895BC
:1002400090917C008770987F892B80937C008091AF
:100250007A00806480937A0080917A0086FDFCCFDA
:100260008091780090917900089580910901089516
:1002700080910701089580910401089581E0909193
:100280000301953108F480E00895809102010895FA
:10029000089580910501882319F085B1806C02C012
:1002A00085B18F7385B908958F929F92AF92BF9257
:1002B000CF92DF92EF92FF924B015C01C12CD12CC7
:1002C0007601A5019401C701B6010E94D70287FFFC
:1002D00011C08FEC97E00197F1F700C0000020E01B
:1002E00030E040E85FE3C701B6010E9473026B0192
:1002F0007C01E7CFFF90EF90DF90CF90BF90AF9061
:100300009F908F90089580E00E9420018533934054
:1003100058F00E943B0260E070E08AE794E40E949B
:1003200054010E94250210C081E00E942001853303
:10033000934008F10E943B0260E070E08AE794E499
:100340000E9454010E94300260E070E08AEF94E461
:100350000E9454010E943B0260E070E08AE794E44E
:100360000E94540182E30E940F0260E070E08AE77D
:1003700094E40C945401809108018E3140F08091F6
:1003800001018E3120F0809100018E3198F482E3DA
:100390000E940F02809108018A3008F4BACF809140
:1003A00001018A3008F4B5CF809100018A3008F449
:1003B000B0CF089584E60C940F0284E10E941A02E3
:1003C00060E070E48CE995E40E9454010E943B02D5
:1003D00060E070E08AE794E40E9454018091020199
:1003E000882351F084E10E940F028091090181115C
:1003F00001C0FFCF0C943B020E94250260E070E038
:100400008AEF94E40E9454010E943B0282E30E941E
:100410000F0260E070E08AE794E40C94540118BC89
:100420001092B400880F87BD8093B3008BB18461B4
:100430008BB9089517BC1092B300880F88BD8093C4
:10044000B4008BB184618BB9089518BC1092B300CD
:1004500088E287BD8093B4008BB184618BB9089525
:1004600017BC1092B40088E288BD8093B3008BB1B2
:1004700084618BB908958BB18B7E8BB917BC1092B8
:10048000B30018BC1092B40008959091C00095FF7D
:10049000FCCF8093C60008958091C00087FFFCCFF9
:1004A0008091C60008950E94F4000E9435018823BF
:1004B00059F00E9438018111F8CF0E943B01882336
:1004C000A1F30E94DD01F1CF0E943E01882339F0A3
:1004D0000E944501811103C00E948301E6CF0E9462
:1004E0004801E3CF5058BB27AA270ED09FC090D019
:1004F00030F095D020F031F49F3F11F41EF485C008
:100500000EF4E095E7FB7BC0E92FA1D080F3BA178A
:10051000620773078407950718F071F49EF5B9C058
:100520000EF4E0950B2EBA2FA02D0B01B90190010E
:100530000C01CA01A0011124FF27591B99F0593F52
:1005400050F4503E68F11A16F040A22F232F342F9A
:100550004427585FF3CF469537952795A795F040E8
:100560005395C9F77EF41F16BA0B620B730B840BFD
:10057000BAF09150A1F0FF0FBB1F661F771F881FB5
:10058000C2F70EC0BA0F621F731F841F48F487950D
:1005900077956795B795F7959E3F08F0B3CF9395FC
:1005A000880F08F09927EE0F97958795089503D047
:1005B00008F481E00895990F0008550FAA0BE0E8B0
:1005C000FEEF16161706E807F907C0F01216130615
:1005D000E407F50798F0621B730B840B950B39F455
:1005E0000A2661F0232B242B252B21F408950A26BB
:1005F00009F4A140A6958FEF811D811D089597F9FB
:100600009F6780E870E060E008959FEF80EC0895B8
:1006100000240A94161617061806090608950024E1
:100620000A9412161306140605060895092E03945B
:10063000000C11F4882352F0BB0F40F4BF2B11F4CF
:1006400060FF04C06F5F7F4F8F4F9F4F089557FD2E
:100650009058440F551F59F05F3F71F04795880F30
:1006600097FB991F61F09F3F79F0879508951216C7
:1006700013061406551FF2CF4695F1DF08C0161673
:1006800017061806991FF1CF869571056105089424
:100690000895E894BB2766277727CB0197F908953B
:0406A000F894FFCFFC
:00000001FF
