:100000000C9434000C943E000C943E000C94F500CB
:100010000C943E000C94EB000C943E000C943E00BB
:100020000C943E000C943E000C943E000C943E0058
:100030000C943E000C943E000C943E000C943E0048
:100040000C943E000C943E000C94D7000C943E009F
:100050000C943E000C94E1000C943E000C943E0085
:100060000C943E000C943E0011241FBECFEFD8E04C
:10007000DEBFCDBF0E9411010C9414010C9400004E
:1000800084EA8093BC008091BC0087FFFCCF089578
:100090008093BB0084E88093BC008091BC0087FF04
:1000A000FCCF08958093BB0084E88093BC008091CE
:1000B000BC0087FFFCCF08958F5F8093BB0084E86E
:1000C0008093BC008091BC0087FFFCCF8091BB0077
:1000D00008950C94400084E98093BC00089514B8FE
:1000E00084B1866184B9239A259A84B1806C84B9DD
:1000F00015B8289A17B887B1806387B918B888B13E
:100100008C6088B9469A1AB8519A8AB18C608AB9BB
:100110008AB180678AB91BB85F9A0895E8E6F0E073
:10012000808185608083EDE6F0E080818068808357
:10013000EBE6F0E08081816080837894089584B557
:10014000836A84BD85B5816085BD17BC18BCE0EBB2
:10015000F0E08081836A8083E1EBF0E08081816060
:1001600080831092B30018BC089580E28093B80099
:1001700085E08093BC0008959093C5008093C400EF
:10018000E1ECF0E0808188698083E2ECF0E080813E
:100190008660808308950E946F000E949F000E94E5
:1001A000B50083E390E00E94BC000C948E001F9287
:1001B0000F920FB60F9211240F900FBE0F901F9049
:1001C00018951F920F920FB60F9211240F900FBE29
:1001D0000F901F9018951F920F920FB60F92112437
:1001E0000F900FBE0F901F9018951F920F920FB691
:1001F0000F9211240F900FBE0F901F901895089525
:100200000895089508959091C00095FFFCCF8093C4
:10021000C60008958091C00087FFFCCF8091C60082
:0C02200008950E94CB00FFCFF894FFCFA0
:00000001FF
