:100000000C947F000C949C000C949C000C949E011A
:100010000C949C000C946A010C945B010C949C0061
:100020000C949C000C949C000C949C000C949C00E0
:100030000C949C000C949C000C949C000C949C00D0
:100040000C949C000C949C000C9437010C949C0024
:100050000C949C000C949C000C949C000C949C00B0
:100060000C949C000C949C00A1068A068D069006B8
:10007000940699069D06084AD73B3BCE016E84BC88
:10008000BFFDC12F3D6C74319ABD56833DDA3D00F2
:10009000C77F11BED9E4BB4C3E916BAAAABE00003B
:1000A00000803F05A84CCDB2D44EB93836A9020C19
:1000B00050B9918688083CA6AAAA2ABE00000080F2
:1000C0003F004E414E494E495459494E46CDCCCC45
:1000D0003D0AD7233C17B7D13877CC2B329595E61C
:1000E000241FB14F0A000020410000C84200401CFC
:1000F0004620BCBE4CCA1B0E5AAEC59D74001124CE
:100100001FBECFEFD8E0DEBFCDBF11E0A0E0B1E071
:10011000EEEFFFE102C005900D92A630B107D9F7CE
:1001200021E0A6E0B1E001C01D92A631B207E1F7DF
:100130000E94F1070C94FD0F0C94000014B884B1D8
:10014000866384B9239A84B1806C84B915B8289ADF
:1001500017B887B18C6087B987B1806387B918B841
:10016000469A1AB8519A8AB18C608AB98AB1806766
:100170008AB91BB8589A5F9A0895E8E6F0E0808142
:1001800085608083EDE6F0E0808180688083EBE627
:10019000F0E08081816080837894089584B5836ADB
:1001A00084BD85B5816085BD17BC18BCE0EBF0E06F
:1001B0008081836A8083E1EBF0E0808181608083CD
:1001C0001092B3001092B400089582E08093B800BA
:1001D00085E48093BC000895F894A895E0E6F0E0EB
:1001E00080818861808386E480837894089510926A
:1001F000C50083E38093C400E1ECF0E0808188696E
:100200008083E2ECF0E08081866080830895ECE7F3
:10021000F0E0808180648083EAE7F0E08081866896
:100220008083089581E08093120180930D011092E4
:10023000130188E08093090110920F0110921101BF
:1002400010920A01109210011092080108950E9464
:100250009E000E9412010E94CE000E94E5000E94B2
:10026000F7000E9407010E94EC000C94BD001F9251
:100270000F920FB60F9211242F933F934F935F93DA
:100280006F937F938F939F93AF93BF93EF93FF935E
:100290000E940A07FF91EF91BF91AF919F918F91BB
:1002A0007F916F915F914F913F912F910F900FBE72
:1002B0000F901F9018951F920F920FB60F92112456
:1002C0008F9381E0809308018F910F900FBE0F9064
:1002D0001F9018951F920F920FB60F9211242F9313
:1002E0003F934F935F936F937F938F939F93AF93BE
:1002F000BF93EF93FF934F9910C00E94E5018111C6
:1003000009C010920F018091110192E0892780931A
:10031000110103C081E080930A01FF91EF91BF9129
:10032000AF919F918F917F916F915F914F913F918D
:100330002F910F900FBE0F901F9018951F920F9244
:100340000FB60F9211242F933F934F935F936F93A8
:100350007F938F939F93AF93BF93CF93EF93FF932D
:1003600018990CC0C1E0C0930F0180910D0181115B
:1003700005C00E94E5018111C0930D01FF91EF912D
:10038000CF91BF91AF919F918F917F916F915F912D
:100390004F913F912F910F900FBE0F901F90189586
:1003A00090917C008770987F892B80937C0080914E
:1003B0007A00806480937A0080917A0086FDFCCF79
:1003C0008091780090917900089563E082E00E9426
:1003D000AA078F3F21F463E082E00C94AA070895F6
:1003E00062E082E00E94AA078F3F21F462E082E08F
:1003F0000C94AA07089566E182E00E94AA078F3F45
:1004000021F466E182E00C94AA07089561E082E09D
:100410000E94AA078F3F21F461E082E00E94AA07B0
:1004200080930E01853128F48CE08093090180E0EF
:10043000089581E0089564E082E00E94AA078F3F5A
:1004400021F464E082E00E94AA07882329F09AE060
:100450009093090110920D0108951F93CF93DF939C
:10046000EC0180E00E94D001182F62E384E10E9439
:10047000FE0528EE33E0211B31092883DF91CF915F
:100480001F91089580911201811103C085B1806C84
:1004900002C085B18F7385B908952F923F924F9214
:1004A0005F926F927F928F929F92AF92BF92CF9204
:1004B000DF92EF92FF920F931F93CF93DF93CDB70D
:1004C000DEB762970FB6F894DEBF0FBECDBF4C010A
:1004D0001B0189E07E019AE0E90EF11CF701982FDB
:1004E00011929A95E9F78E010F5F1F4FF801119253
:1004F0008A95E9F761E182E00E94AA07D82E62E1BD
:1005000082E00E94AA07C82E63E182E00E94AA0747
:1005100064E182E00E94AA07A82E65E182E00E94C1
:10052000AA074A2D50E060E070E0762F652F542F27
:100530004427482B5F934F931F92CF9220E0A22E27
:1005400021E0B22EBF92AF92FF92EF920E948C0BED
:10055000C7010E94880B2B013C016D2D70E080E0EB
:1005600090E00E946B096B017C0120E030E040E7E5
:1005700052E4C301B2010E9403099B01AC01C7010F
:10058000B6010E947008F4016083718382839383B3
:100590006CE082E00E94AA07F82E6DE082E00E94E3
:1005A000AA07E82E6EE082E00E94AA076FE082E0D0
:1005B0000E94AA07C82E60E182E00E94AA074C2D83
:1005C00050E060E070E0762F652F542F4427482BD1
:1005D0005F934F931F92EF92BF92AF921F930F932F
:1005E0000E948C0BC8010E94880B4B015C016F2D8F
:1005F00070E080E090E00E946B096B017C0120E0DC
:1006000030E040E752E4C501B4010E9403099B01B8
:10061000AC01C701B6010E947008F10160837183CB
:10062000828393830FB6F894DEBF0FBECDBF629670
:100630000FB6F894DEBF0FBECDBFDF91CF911F91F3
:100640000F91FF90EF90DF90CF90BF90AF909F9071
:100650008F907F906F905F904F903F902F90089574
:100660001F93CF93DF9364E08CE30E94AA07182FB7
:1006700063E08CE30E94AA07C82FDD27C7FDD09551
:10068000DC2FCC27812F992787FD9095C82BD92B5C
:1006900068E08CE30E94AA07182F67E08CE30E94B1
:1006A000AA07682F772767FD7095762F6627812F19
:1006B000992787FD9095682B792BCE010E945A0BC4
:1006C000882777FD8095982F0E946D09DF91CF9143
:1006D0001F910C94D4084F925F926F927F928F92E9
:1006E0009F92AF92BF92CF92DF92EF92FF92CF9301
:1006F000DF93CDB7DEB760970FB6F894DEBF0FBEBD
:10070000CDBF6D877E878F87988BBE016F5F7F4FD0
:10071000CE0105960E944D02CD80DE80EF80F884E8
:10072000C701B6010E9400094B015C01C701B60177
:100730000E94E90A2B013C0129813A814B815C81AD
:1007400069EB7FE98FE99FE30E946F086B017C01F1
:100750000E94000969877A878B879C8726EB3AEF8E
:100760004BE55FEBC501B4010E94860A4B015C01B9
:1007700023E730EF42E05FE3C301B2010E94860A43
:1007800029853A854B855C850E94860A9B01AC01D0
:10079000C501B4010E946F084B015C01C701B6019D
:1007A0000E94E90A23E730EF42E05FE30E94860AF5
:1007B0006B017C01A5019401C501B4010E94860A68
:1007C0002B013C01A7019601C701B6010E94860AD0
:1007D0009B01AC01C301B2010E9470080E94F30AA0
:1007E000A50194010E9470089B01AC01C701B601EC
:1007F0000E9403090E94D4089B01AC010E9470086A
:100800002D853E854F8558890E946F0860960FB6EA
:10081000F894DEBF0FBECDBFDF91CF91FF90EF9078
:10082000DF90CF90BF90AF909F908F907F906F9010
:100830005F904F9008958F929F92AF92BF92CF9208
:10084000DF92EF92FF924B015C01C12CD12C76011B
:10085000A5019401C701B6010E94FC0887FF11C0E1
:100860008FEC97E00197F1F700C0000020E030E046
:1008700040E85FE3C701B6010E9470086B017C018C
:10088000E7CFFF90EF90DF90CF90BF90AF909F9019
:100890008F9008951F93CF93DF9365E082E00E94CD
:1008A000AA07D82F8F3F29F465E082E00E94AA07AB
:1008B000D82F66E082E00E94AA07C82F8F3F29F454
:1008C00066E082E00E94AA07C82F67E082E00E94EB
:1008D000AA07182F8F3F29F467E082E00E94AA0739
:1008E000182F80E00E94D0018533934058F00E9479
:1008F0002B0660E070E08AE794E40E941B040E94EB
:10090000150610C081E00E94D0018533934020F18C
:100910000E942B0660E070E08AE794E40E941B04CA
:100920000E94200660E070E08AEF94E40E941B04BD
:100930000E942B0660E070E08AE794E40E941B04AA
:1009400084E10E94F30560E070E08AE794E4DF91BF
:10095000CF911F910C941B04DE3128F0CE3128F08A
:100960001E3130F00AC0DA3010F2CA3008F4BFCFBE
:100970001A3008F4BCCF82E301C084E6DF91CF9146
:100980001F910C94F305CF92DF92EF92FF920E9499
:100990002B0660E070E08AE794E40E941B040E944A
:1009A00030030E946B036B017C0120E030E0A90161
:1009B0000E94FC0887FF12C020E030E0A901C701B7
:1009C000B6010E947B0A87FD12C00E9420060E9489
:1009D00030030E946B036B017C01EECF20E030E01E
:1009E000A901C701B6010E947B0A181634F0FF90D6
:1009F000EF90DF90CF900C942B0620E030E0A9011F
:100A0000C701B6010E94FC0818168CF30E94150657
:100A10000E9430030E946B036B017C01EECFEF92CA
:100A2000FF920F931F93CF93DF931F92CDB7DEB743
:100A300019820E94C30410E00E94E5018111B0C038
:100A40000E94A6060E94AA060E940602111195C0E5
:100A500065E082E00E94AA07E82E2FEF821305C00E
:100A600065E082E00E94AA07E82E66E082E00E942C
:100A7000AA07F82E8FEFF81205C066E082E00E9408
:100A8000AA07F82E67E082E00E94AA07082F8F3F8E
:100A900029F467E082E00E94AA07082F84E60E94FA
:100AA000F30580E00E94D0018533934008F076C0C2
:100AB00081E00E94D0018533934040F10E942B06D3
:100AC00060E070E08AE794E40E941B0484E10E94E5
:100AD0000A0660E070E08AEF94E40E941B040E9422
:100AE0002B0660E070E08AE794E40E941B040E94F9
:100AF000150681E00E94D00185339340D0F780E055
:100B00000E94D00185339340A0F796CF8DE18E15DA
:100B100028F48F1518F40E3108F08ECF82E30E946E
:100B2000F30529E02E1528F42F1518F40A3008F0E3
:100B300083CF0E942B0660E070E08AE794E40E9475
:100B40001B040E94150660E070E08AEF94E40E94A6
:100B50001B040E942B0660E070E08AE794E40E9488
:100B60001B0484E10E94F30560E070E08AE794E4EE
:100B70000E941B040E94C3045FCF80E00E94D0014A
:100B8000853F914008F455CF81E00E94D001892B28
:100B900009F44FCFCE0101960E942D0211E04CCFF7
:100BA0000F90DF91CF911F910F91FF90EF900895DB
:100BB00084E10E940A0660E070E48CE995E40E94FA
:100BC0001B040E942B0660E070E08AE794E40E9418
:100BD0001B040E94150660E070E08AEF94E40E9416
:100BE0001B040C942B0618BC1092B400880F87BD10
:100BF0008093B3008BB184618BB9089518BC1092B7
:100C0000B400880F87BD660F6093B3008BB1846119
:100C10008BB9089517BC1092B300880F88BD8093DC
:100C2000B4008BB184618BB9089518BC1092B300E5
:100C300088E287BD8093B4008BB184618BB908953D
:100C400017BC1092B40088E288BD8093B3008BB1CA
:100C500084618BB908958BB18B7E8BB917BC1092D0
:100C6000B30018BC1092B400089580911301823033
:100C7000E9F048F48823F1F18130E1F585B1897F0D
:100C800085B92C9A0895843031F1A8F0853091F51A
:100C900085B1897E85B92FEF84E39CE021508040A7
:100CA0009040E1F700C000002C9A1AC085B18D7EFB
:100CB00085B92A9A089585B1897E85B92FEF84E395
:100CC0009CE0215080409040E1F700C0000085B1D9
:100CD000866185B905C085B18B7E85B9299A08954D
:100CE0002FEF84E39CE0215080409040E1F700C06A
:100CF0000000089585B1897E85B908958091090124
:100D000090E0FC013897E730F105D8F4EC5CFF4F38
:100D10000C946E0B2D9842980EC02D9843980FC0DE
:100D20002D9888B18C6010C088B1837F88B92D9AC6
:100D3000089542982D9A439A089543982D9A429A7D
:100D400008952D9888B1837F88B908950E9435064B
:100D50000C947E06809113010E94E30780910901A3
:100D60000E94E30780910E010E94E30761E182E0A7
:100D70000E94AA070E94E30762E182E00E94AA079C
:100D80000E94E30763E182E00E94AA070E94E30752
:100D900064E182E00E94AA070E94E30765E182E025
:100DA0000E94AA070E94E3076CE082E00E94AA0763
:100DB0000E94E3076DE082E00E94AA070E94E30719
:100DC0006EE082E00E94AA070E94E3076FE082E0E3
:100DD0000E94AA070E94E30760E182E00E94AA073E
:100DE0000E94E30768E082E00E94AA070E94E307EE
:100DF00069E082E00E94AA070E94E3076AE082E0BD
:100E00000E94AA070E94E3076BE082E00E94AA0703
:100E10000C94E307CF938091C60080930C0182313C
:100E200069F08331C9F08131D1F410920F018091C2
:100E3000110192E089278093110111C0C1E0C09394
:100E40000F0180910D0181110AC00E94E5018823E4
:100E500031F0C0930D0103C081E080930A01CF916E
:100E6000089584EA8093BC008091BC0087FFFCCF8A
:100E7000909108018091B900887F883011F0992302
:100E8000C9F3089584EA8093BC008091BC0087FF79
:100E9000FCCF909108018091B900887F803111F0DA
:100EA0009923C9F30895860F8093BB0084E880934B
:100EB000BC008091BC0087FFFCCF909108016623A5
:100EC00051F08091B900887F803451F09923C9F3A3
:100ED0000895911105C08091B900887F8831C9F7C4
:100EE00008958093BB0084E88093BC008091BC008F
:100EF00087FFFCCF909108018091B900887F8832EC
:100F000011F09923C9F3089584E88093BC0080917F
:100F1000BC0087FFFCCF909108018091B900887FC9
:100F2000803511F09923C9F38091BB00089584E8BE
:100F30008093BC008091BC0087FFFCCF909108019A
:100F40008091B900887F883511F09923C9F3809189
:100F5000BB0008950F931F93CF93DF931F92CDB7DC
:100F6000DEB7182F062F1982809108018111109287
:100F70000801A8950E94310760E0812F0E94530765
:100F8000802F0E9471070E94420761E0812F0E941A
:100F900053070E949707898384E98093BC0080915E
:100FA0000801882321F08FEF898310920801A8950A
:100FB00089810F90DF91CF911F910F91089584E95E
:100FC0008093BC0008959091C00095FFFCCF809362
:100FD000C60008958091C00087FFFCCF8091C600B5
:100FE00008950E94270180911101811101C0FFCF56
:100FF0001092110112E0C1E005E0D8E084E0F82E83
:1010000093E0E92EA8950E94A6060E94AA060E94D7
:1010100042020E94E501882349F1C09312010E9417
:101020002B060E94F001882389F0E0921301809141
:101030000A01882339F380910D01813019F78093DB
:10104000130110920F0110920A010AC00E94FB01C5
:10105000882349F080910D01813029F410920F010D
:10106000D0930901CFCFF0921301CCCF8091110121
:10107000882369F080910F01811109C00093130149
:10108000C0931201D09309010E942B06BBCF0E948E
:1010900006020E9406028823B9F00E941B028111F9
:1010A00013C00E94FB01882379F0809111018823ED
:1010B00021F080910F01811107C0C093130110929C
:1010C00012010E944A049ECF10931301C093120193
:1010D0000E940F0510920F011092110193CF5058EA
:1010E000BB27AA270ED0BCC185D130F08AD120F011
:1010F00031F49F3F11F41EF455C10EF4E095E7FB67
:101100004BC1E92FCFD180F3BA1762077307840769
:10111000950718F071F49EF5E7C10EF4E0950B2EDB
:10112000BA2FA02D0B01B90190010C01CA01A00139
:101130001124FF27591B99F0593F50F4503E68F194
:101140001A16F040A22F232F342F4427585FF3CFD5
:10115000469537952795A795F0405395C9F77EF4A6
:101160001F16BA0B620B730B840BBAF09150A1F0EF
:10117000FF0FBB1F661F771F881FC2F70EC0BA0F75
:10118000621F731F841F48F4879577956795B795FD
:10119000F7959E3F08F0B3CF9395880F08F09927F5
:1011A000EE0F979587950895DF93DD27B92FBF77C9
:1011B00040E85FE31616170648075B0710F4D92FBF
:1011C0009ED19F938F937F936F934BD2E6E7F0E08E
:1011D000ECD046D12F913F914F915F91A3D1DD2368
:1011E00049F09058A2EA2AED3FE049EC5FE3D0785D
:1011F0005D2787DFDF9134C1ABD008F481E008952B
:1012000008D1E3953EC10CD02BC1FBD040F0F2D009
:1012100030F021F45F3F19F0BFC0511166C1C2C068
:1012200041D198F39923C9F35523B1F3951B550B7D
:10123000BB27AA2762177307840738F09F5F5F4FA9
:10124000220F331F441FAA1FA9F333D00E2E3AF0EA
:10125000E0E830D091505040E695001CCAF729D004
:10126000FE2F27D0660F771F881FBB1F2617370753
:101270004807AB07B0E809F0BB0B802DBF01FF2783
:1012800093585F4F2AF09E3F510568F085C02DC1ED
:101290005F3FECF3983EDCF3869577956795B795BD
:1012A000F7959F5FC9F7880F911D9695879597F9D8
:1012B0000895E1E0660F771F881FBB1F6217730751
:1012C0008407BA0720F0621B730B840BBA0BEE1F66
:1012D00088F7E0950895E89409C097FB3EF490954F
:1012E0008095709561957F4F8F4F9F4F9923A9F0FF
:1012F000F92F96E9BB279395F6958795779567958E
:10130000B795F111F8CFFAF4BB0F11F460FF1BC0D1
:101310006F5F7F4F8F4F9F4F16C0882311F096E964
:1013200011C0772321F09EE8872F762F05C0662312
:1013300071F096E8862F70E060E02AF09A95660FCB
:10134000771F881FDAF7880F9695879597F9089584
:10135000990F0008550FAA0BE0E8FEEF16161706C6
:10136000E807F907C0F012161306E407F50798F02E
:10137000621B730B840B950B39F40A2661F0232B47
:10138000242B252B21F408950A2609F4A140A695C3
:101390008FEF811D811D089597F99F6780E870E0A8
:1013A00060E008959FEF80EC0895DF93CF931F9343
:1013B0000F93FF92EF92DF927B018C01689405C03E
:1013C000DA2EEF01AFD0FE01E894A5912591359179
:1013D00045915591AEF3EF0194DEFE019701A8010E
:1013E000DA9479F7DF90EF90FF900F911F91CF91F2
:1013F000DF91089500240A941616170618060906A8
:10140000089500240A94121613061406050608957A
:10141000C9CF50D0E8F3E894E0E0BB279F57F0F045
:101420002AED3FE049EC06C0EE0FBB0F661F771FA9
:10143000881F28F0B23A62077307840728F0B25A6F
:10144000620B730B840BE3959A9572F7803830F436
:101450009A95BB0F661F771F881FD2F7904806C169
:10146000092E0394000C11F4882352F0BB0F40F4B2
:10147000BF2B11F460FF04C06F5F7F4F8F4F9F4FF2
:101480000895EF93E0FF06C0A2EA2AED3FE049ECA1
:101490005FEB37DEE5DF0F90039401FC9058E3EA41
:1014A000F0E0F7C057FD9058440F551F59F05F3FCB
:1014B00071F04795880F97FB991F61F09F3F79F076
:1014C00087950895121613061406551FF2CF4695F8
:1014D000F1DF08C0161617061806991FF1CF86957A
:1014E0007105610508940895E894BB27662777275E
:1014F000CB0197F908952CDF08F48FEF08959B0135
:10150000AC0160E070E080E89FE37DCE0BD0A8CF17
:1015100071DF28F076DF18F0952309F03DCF42CF38
:101520001124E3CFBFDFA0F3959FD1F3950F50E0D7
:10153000551F629FF001729FBB27F00DB11D639F85
:10154000AA27F00DB11DAA1F649F6627B00DA11D2B
:10155000661F829F2227B00DA11D621F739FB00DD1
:10156000A11D621F839FA00D611D221F749F332741
:10157000A00D611D231F849F600D211D822F762FDA
:101580006A2F11249F5750408AF0E1F088234AF0D7
:10159000EE0FFF1FBB1F661F771F881F9150504023
:1015A000A9F79E3F510570F0F7CE9FCF5F3FECF358
:1015B000983EDCF3869577956795B795F795E7950F
:1015C0009F5FC1F7FE2B880F911D9695879597F920
:1015D00008959F931EDF0F9007FCEE5F52CF11F42A
:1015E0000EF4E0CE41C066DFD0F39923D9F3CEF3F9
:1015F0009F57550B87FF46D00024A0E640EA900194
:1016000080585695979528F4805C660F771F881F41
:1016100020F026173707480730F4621B730B840B42
:10162000202931294A2BA695179407942025312586
:101630004A2758F7660F771F881F20F026173707AD
:10164000480730F4620B730B840B200D311D411DD4
:10165000A09581F7B901842F9158880F96958795A9
:1016600008959B01AC0152CF9F3F31F0915020F47F
:10167000879577956795B795880F911D969587956E
:1016800097F9089591505040660F771F881FD2F741
:1016900008959F938F937F936F93FF93EF939B0195
:1016A000AC0134DFEF91FF9180DE2F913F914F919C
:1016B0005F912CCF97FB072E16F4009407D077FD8F
:1016C00009D00E94740B07FC05D03EF490958195DB
:1016D0009F4F0895709561957F4F0895EE0FFF1FFE
:1016E0000590F491E02D0994AA1BBB1B51E107C0A2
:1016F000AA1FBB1FA617B70710F0A61BB70B881FA2
:10170000991F5A95A9F780959095BC01CD01089530
:10171000662777270C94800DAEE0B0E0E2E9FBE0AD
:101720000C94C50F0D891E8986E08C831A8309836A
:101730008FEF9FE79E838D83AE01475E5F4F6F897A
:10174000788DCE0101960E94AE0BEF81F885E00FF7
:10175000F11F10822E96E4E00C94E10FACE0B0E0B3
:10176000E4EBFBE00C94B70F7C016B018A01FC01F8
:1017700017821682838181FFBDC1CE0101964C0183
:10178000F7019381F60193FD859193FF81916F019C
:10179000882309F4ABC1853239F493FD859193FF19
:1017A00081916F01853229F4B70190E00E94190FF1
:1017B000E7CF512C312C20E02032A0F48B3269F09D
:1017C00030F4803259F0833269F420612CC08D32BC
:1017D00039F0803339F4216026C02260246023C0B0
:1017E000286021C027FD27C030ED380F3A3078F44B
:1017F00026FF06C0FAE05F9E300D1124532E13C061
:101800008AE0389E300D1124332E20620CC08E32B7
:1018100021F426FD6BC1206406C08C3611F42068CB
:1018200002C0883641F4F60193FD859193FF8191C2
:101830006F018111C1CF982F9F7D9554933028F46B
:101840000C5F1F4FFFE3F9830DC0833631F0833700
:1018500071F0833509F05BC022C0F8018081898373
:101860000E5F1F4F44244394512C540115C038017E
:10187000F2E06F0E711CF801A080B18026FF03C05A
:10188000652D70E002C06FEF7FEFC5012C870E94CD
:101890000E0F2C0183012C852F77222E17C03801C3
:1018A000F2E06F0E711CF801A080B18026FF03C02A
:1018B000652D70E002C06FEF7FEFC5012C870E949D
:1018C000030F2C012C852068222E830123FC1BC0D2
:1018D000832D90E048165906B0F4B70180E290E0FD
:1018E0000E94190F3A94F4CFF50127FC859127FE49
:1018F00081915F01B70190E00E94190F31103A9475
:10190000F1E04F1A51084114510471F7E5C08436D3
:1019100011F0893639F5F80127FF07C06081718120
:10192000828193810C5F1F4F08C06081718188277D
:1019300077FD8095982F0E5F1F4F2F76B22E97FF61
:1019400009C090958095709561957F4F8F4F9F4FFF
:101950002068B22E2AE030E0A4010E944B0FA82E8E
:10196000A81844C0853729F42F7EB22E2AE030E033
:1019700025C0F22FF97FBF2E8F36C1F018F48835BD
:1019800079F0B4C0803719F0883721F0AFC02F2F1D
:101990002061B22EB4FE0DC08B2D8460B82E09C01C
:1019A00024FF0AC09F2F9660B92E06C028E030E0C1
:1019B00005C020E130E002C020E132E0F801B7FECE
:1019C00007C060817181828193810C5F1F4F06C0C7
:1019D0006081718180E090E00E5F1F4FA4010E9442
:1019E0004B0FA82EA818FB2DFF77BF2EB6FE0BC0FD
:1019F0002B2D2E7FA51450F4B4FE0AC0B2FC08C0F3
:101A00002B2D2E7E05C07A2C2B2D03C07A2C01C0E5
:101A1000752C24FF0DC0FE01EA0DF11D808180337D
:101A200011F4297E09C022FF06C07394739404C088
:101A3000822F867809F0739423FD13C020FF06C01F
:101A40005A2C731418F4530C5718732C731468F42D
:101A5000B70180E290E02C870E94190F73942C85C7
:101A6000F5CF731410F4371801C0312C24FF12C0C5
:101A7000B70180E390E02C870E94190F2C8522FF8C
:101A800017C021FF03C088E590E002C088E790E01E
:101A9000B7010CC0822F867859F021FD02C080E288
:101AA00001C08BE227FD8DE2B70190E00E94190F83
:101AB000A51438F4B70180E390E00E94190F5A94FE
:101AC000F7CFAA94F401EA0DF11D8081B70190E0EF
:101AD0000E94190FA110F5CF332009F451CEB701A0
:101AE00080E290E00E94190F3A94F6CFF7018681C8
:101AF000978102C08FEF9FEF2C96E2E10C94D30FF9
:101B0000A0E0B0E0E6E8FDE00C94BD0F8B016115AC
:101B1000710521F0DB018C9311969C93EC015E0121
:101B2000BFEFAB1ABB0A7501C8808C2D90E00E94F4
:101B3000E30E892B11F0E501F2CFEDE2CE1208C0E1
:101B40007E01F2E0EF0EF11CC980DD24D39409C0C0
:101B50002BE2C21205C07E0142E0E40EF11CC980F6
:101B6000D12CE701219743E050E06AEC70E0CE0110
:101B70000E94EB0E892BC1F4239645E050E065EC02
:101B800070E0CE010E94EB0E892B09F42596011519
:101B9000110519F0D801CD93DC93D11006C160E096
:101BA00070E080E89FE70AC143E050E062EC70E03B
:101BB000CE010E94EB0E892B59F40115110509F491
:101BC000F9C0B2E0EB0EF11CF801F182E082F2C044
:101BD000F70160E070E0CB01C0E0D0E07F01A0ED54
:101BE000AA2EAC0C29E02A1530F14D2D4260B42EFE
:101BF0002D2D2870D2FE04C0211125C0219623C0AE
:101C000021112197A5E0B0E09B01AC010E94AC0F2F
:101C1000660F771F881F991F6A0D711D811D911D09
:101C20006839A9E97A078A07A9E19A0760F0BD2D0A
:101C3000B660BB2E08C02EEFA2120AC0D3FC50C063
:101C40004D2D4860B42E3196D701CC90DB2CC6CFF9
:101C50002C2D2F7D253409F043C0A081AD3241F4F5
:101C6000BD2DB061DB2E7F0122E0E20EF11C0CC025
:101C70007F01AB3231F04FEFE41AF40A21E030E09B
:101C800006C0A2E0EA0EF11CA18122E030E0A053E0
:101C9000AA3018F0E21AF30A23C0F70120E030E07E
:101CA0002038BCE03B075CF4A901440F551F440FEA
:101CB000551F240F351F220F331F2A0F311DAF016F
:101CC0004F5F5F4F7A01A081A053AA3010F4FA0150
:101CD000E7CFD4FE03C0319521953109C20FD31F40
:101CE000D1FE09C00115110531F0E1E0EE1AF1084D
:101CF000D801ED92FC920E946B092D2D23702330A8
:101D000019F04B015C0106C04B015C01B7FAB094BD
:101D1000B7F8B09420E030E0A901C501B4010E94F9
:101D2000FC08882309F43EC0D7FF06C0D195C195B1
:101D3000D10901EE10E002C009EF10E06801B8E13E
:101D4000CB1AD10890E2E92EF12CCE15DF0574F004
:101D5000F8012591359145915491C501B4010E9436
:101D6000860A4B015C01CE19DF09EFCF045011093F
:101D7000F594E7940C151D0541F78A2D880F8B2DDE
:101D8000881F8F3F49F020E030E0A901C501B40170
:101D90000E94FC08811106C082E290E09093150138
:101DA00080931401C501B40109C060E070E080E8CF
:101DB0009FEF04C060E070E080EC9FE7CDB7DEB736
:101DC000ECE00C94D90F9111C4C0803219F0895005
:101DD0008550D0F70895FB01DC014150504088F058
:101DE0008D9181341CF08B350CF4805E65916134EB
:101DF0001CF06B350CF4605E861B611171F3990B5E
:101E00000895881BFCCFFC010590615070400110C3
:101E1000D8F7809590958E0F9F1F0895FC01615013
:101E2000704001900110D8F7809590958E0F9F1FFC
:101E300008950F931F93CF93DF93182F092FEB0172
:101E40008B8181FD03C08FEF9FEF20C082FF10C008
:101E50004E815F812C813D81421753077CF4E881DC
:101E6000F9819F012F5F3F4F39832883108306C07C
:101E7000E885F985812F0995892B29F72E813F81E6
:101E80002F5F3F4F3F832E83812F902FDF91CF9184
:101E90001F910F910895FA01AA27283051F120319E
:101EA00081F1E8946F936E7F6E5F7F4F8F4F9F4FEE
:101EB000AF4FB1E03ED0B4E03CD0670F781F891F30
:101EC0009A1FA11D680F791F8A1F911DA11D6A0FFE
:101ED000711D811D911DA11D20D009F468943F91B1
:101EE0002AE0269F11243019305D3193DEF6CF01B0
:101EF0000895462F4770405D4193B3E00FD0C9F776
:101F0000F6CF462F4F70405D4A3318F0495D31FDE2
:101F10004052419302D0A9F7EACFB4E0A695979535
:101F2000879577956795BA95C9F70097610571050B
:101F300008959B01AC010A2E069457954795379555
:101F40002795BA95C9F7620F731F841F951FA01DAF
:101F500008959927882708950E94EE0FA59F900D58
:101F6000B49F900DA49F800D911D112408952F9270
:101F70003F924F925F926F927F928F929F92AF9219
:101F8000BF92CF92DF92EF92FF920F931F93CF9366
:101F9000DF93CDB7DEB7CA1BDB0B0FB6F894DEBFFD
:101FA0000FBECDBF09942A88398848885F846E8423
:101FB0007D848C849B84AA84B984C884DF80EE806D
:101FC000FD800C811B81AA81B981CE0FD11D0FB676
:101FD000F894DEBF0FBECDBFED010895A29FB00102
:101FE000B39FC001A39F700D811D1124911DB29F4D
:0E1FF000700D811D1124911D0895F894FFCFEE
:061FFE0025642E2564009D
:00000001FF
