:100000000C943B000C944D000C944D000C943E015C
:100010000C944D000C940A010C944D000C944D006E
:100020000C944D000C944D000C944D000C944D001C
:100030000C944D000C944D000C944D000C944D000C
:100040000C944D000C944D000C94E6000C944D0063
:100050000C944D000C944D000C944D000C944D00EC
:100060000C944D000C944D00CE03B703BA03BD03AE
:10007000C103C603CA0311241FBECFEFD8E0DEBF01
:10008000CDBF21E0A0E0B1E001C01D92A231B207D6
:10009000E1F70E948A040C94F1050C94000014B856
:1000A00084B1866384B9239A84B1806C84B915B80D
:1000B000289A17B887B18C6087B987B1806387B9F0
:1000C00018B8469A1AB8519A8AB18C608AB98AB11E
:1000D00080678AB91BB8589A5F9A0895E8E6F0E0FD
:1000E000808185608083EDE6F0E080818068808398
:1000F000EBE6F0E08081816080837894089584B598
:10010000836A84BD85B5816085BD17BC18BCE0EBF2
:10011000F0E08081836A8083E1EBF0E080818160A0
:1001200080831092B3001092B400089582E080930F
:10013000B80085E48093BC0008951092C50083E365
:100140008093C400E1ECF0E0808188698083E2EC78
:10015000F0E08081866080830895ECE7F0E08081A4
:1001600080648083EAE7F0E0808186688083089578
:1001700081E080930C01809306011092100188E0C9
:100180008093020180E18093050110920E0110928C
:1001900007011092040110920901109211011092AE
:1001A000080110920B011092030110920A010895A8
:1001B0000E944F000E94B8000E947F000E9496009B
:1001C0000E949D000E94AD000C946E001F920F9241
:1001D0000FB60F9211242F933F934F935F936F931A
:1001E0007F938F939F93AF93BF93EF93FF930E945F
:1001F000E303FF91EF91BF91AF919F918F917F9119
:100200006F915F914F913F912F910F900FBE0F9083
:100210001F9018951F920F920FB60F9211242F93D3
:100220003F934F935F936F937F938F939F93AF937E
:10023000BF93EF93FF934F9B10C00E9485018111E4
:1002400009C01092080180910B0192E089278093E8
:100250000B0103C081E080930301FF91EF91BF91F7
:10026000AF919F918F917F916F915F914F913F914E
:100270002F910F900FBE0F901F9018951F920F9205
:100280000FB60F9211242F933F934F935F936F9369
:100290007F938F939F93AF93BF93CF93EF93FF93EE
:1002A000189B0CC0C1E0C093080180910601811128
:1002B00005C00E9485018111C0930601FF91EF9155
:1002C000CF91BF91AF919F918F917F916F915F91EE
:1002D0004F913F912F910F900FBE0F901F90189547
:1002E00090917C008770987F892B80937C0080910F
:1002F0007A00806480937A0080917A0086FDFCCF3A
:10030000809178009091790008958091110108956D
:1003100080910E010895809109010895909107013F
:10032000882321F081E0913548F405C0953128F407
:100330008CE08093020180E0089581E0089580912F
:100340000401882329F09AE090930201109206019B
:1003500008951F93CF93DF93EC0180E00E9470011A
:10036000182F62E384E10E942B0328EE33E0211B67
:1003700031092883DF91CF911F91089580910C015D
:10038000811103C085B1806C02C085B18F7385B9BE
:1003900008958F929F92AF92BF92CF92DF92EF9289
:1003A000FF924B015C01C12CD12C7601A501940177
:1003B000C701B6010E94720587FF11C08FEC97E05C
:1003C0000197F1F700C0000020E030E040E85FE373
:1003D000C701B6010E940E056B017C01E7CFFF90BB
:1003E000EF90DF90CF90BF90AF909F908F90089547
:1003F00080E00E9470018533934058F00E945803BA
:1004000060E070E08AE794E40E94C9010E94420320
:1004100010C081E00E9470018533934008F10E9472
:10042000580360E070E08AE794E40E94C9010E94EA
:100430004D0360E070E08AEF94E40E94C9010E94DD
:10044000580360E070E08AE794E40E94C90184E107
:100450000E94200360E070E08AE794E40C94C901F4
:1004600080910F018E3140F0809101018E3120F09A
:10047000809100018E3198F482E30E9420038091E4
:100480000F018A3008F4BACF809101018A3008F454
:10049000B5CF809100018A3008F4B0CF089584E68A
:1004A0000C9420030E94580360E070E08AE794E413
:1004B0000C94C901CF93DF931F92CDB7DEB7198299
:1004C0000E94520280911101811192C080E00E942D
:1004D0008E010E94D70380910A01811174C084E6C5
:1004E0000E94200380E00E9470018533934020F039
:1004F00081E080930A01E6CF81E00E94700185339C
:10050000934010F10E94580360E070E08AE794E4A1
:100510000E94C90184E10E94370360E070E08AEF25
:1005200094E40E94C9010E94580360E070E08AE7E9
:1005300094E40E94C9010E94420381E00E9470017C
:1005400085339340D0F7BECF80910F018E3148F0B4
:10055000809101018E3128F0809100018E3108F0E8
:10056000B1CF82E30E94200380910F018A3048F0CE
:10057000809101018A3028F0809100018A3008F0D2
:10058000A1CF0E94580360E070E08AE794E40E94E3
:10059000C9010E94420360E070E08AEF94E40E9487
:1005A000C9010E94580360E070E08AE794E40E9469
:1005B000C90184E10E94200360E070E08AE794E4CE
:1005C0000E94C9017DCF80E00E947001853F91406B
:1005D00050F081E00E947001892B29F0CE01019634
:1005E0000E94A9016FCF0E94520210920A016ACFA5
:1005F0000F90DF91CF91089584E10E94370360E06E
:1006000070E48CE995E40E94C9010E94580360E0FF
:1006100070E08AE794E40E94C9010E94420360E00E
:1006200070E08AEF94E40E94C9010E94580382E3BB
:100630000E94200360E070E08AE794E40C94C90112
:1006400018BC1092B400880F87BD8093B3008BB1A3
:1006500084618BB9089518BC1092B400880F87BDCF
:10066000660F6093B3008BB184618BB9089517BC9A
:100670001092B300880F88BD8093B4008BB1846161
:100680008BB9089518BC1092B30088E287BD80939F
:10069000B4008BB184618BB9089517BC1092B4007B
:1006A00088E288BD8093B3008BB184618BB90895D3
:1006B0008BB18B7E8BB917BC1092B30018BC109213
:1006C000B4000895809110018230E9F048F4882345
:1006D000F1F18130E1F585B1897F85B92C9A0895D2
:1006E000843031F1A8F0853091F585B1897E85B9E6
:1006F0002FEF84E39CE0215080409040E1F700C060
:1007000000002C9A1AC085B18D7E85B92A9A089569
:1007100085B1897E85B92FEF84E39CE0215080402C
:100720009040E1F700C0000085B1866185B905C041
:1007300085B18B7E85B9299A08952FEF84E39CE0DB
:10074000215080409040E1F700C00000089585B13D
:10075000897E85B908958091020190E0FC01389767
:10076000E730F105D8F4EC5CFF4F0C94EB052D98C5
:1007700042980EC02D9843980FC02D9888B18C6078
:1007800010C088B1837F88B92D9A089542982D9A18
:10079000439A089543982D9A429A08952D9888B1C6
:1007A000837F88B908950E9462030C94AB03809103
:1007B00010010E947C04809102010E947C048091BF
:1007C00007010C947C04CF938091C60080930501AF
:1007D000823169F08331C9F08131D1F4109208017E
:1007E00080910B0192E0892780930B0111C0C1E039
:1007F000C09308018091060181110AC00E94850101
:10080000882331F0C093060103C081E08093030187
:10081000CF91089584EA8093BC008091BC0087FF4B
:10082000FCCF8091B900887F8830D9F7089584EA99
:100830008093BC008091BC0087FFFCCF8091B90001
:10084000887F8031D9F70895680F6093BB0084E8F2
:100850008093BC008091BC0087FFFCCF8091B900E1
:10086000887F8831D9F708958093BB0084E880930E
:10087000BC008091BC0087FFFCCF8091B900887FCD
:100880008832D9F7089584E88093BC008091BC0039
:1008900087FFFCCF8091B900887F8035D9F78091A0
:1008A000BB00089584E88093BC008091BC0087FF62
:1008B000FCCF8091B900887F8835D9F78091BB0043
:1008C0000895CF93DF93C82FD62F0E940A0460E0CB
:1008D0008C2F0E9424048D2F0E9434040E94170440
:1008E00061E08C2F0E942404DF91CF910C9452047C
:1008F00084E98093BC0008959091C00095FFFCCFDF
:100900008093C60008958091C00087FFFCCF80913E
:10091000C60008950E94D80080910B01811101C08A
:10092000FFCF10920B0112E0C1E005E0D8E084E0B7
:10093000F82E93E0E92E0E94D3030E94D7030E9471
:10094000BE010E948501882379F1C0930C010E94A9
:1009500088018823B9F0E092100180910301882377
:1009600051F30E9485010E948E01882321F380911A
:100970000601813001F78093100110920801109256
:1009800003010AC00E948B01882359F0809106015F
:10099000813039F410920801D09302010E94FC02C8
:1009A000CACFF0921001C7CF80910B01882369F064
:1009B00080910801811109C000931001C0930C01BE
:1009C000D09302010E945803B6CF0E9485010E9475
:1009D0008E018823B9F00E949F01811113C00E94EB
:1009E0008B01882379F080910B01882321F080917D
:1009F0000801811107C0C093100110920C010E94E0
:100A0000F80199CF10931001C0930C010E945A0273
:100A10001092080110920B018ECF5058BB27AA27C5
:100A20000ED09FC090D030F095D020F031F49F3F91
:100A300011F41EF485C00EF4E095E7FB7BC0E92FAE
:100A4000A1D080F3BA17620773078407950718F0DF
:100A500071F49EF5B9C00EF4E0950B2EBA2FA02DBF
:100A60000B01B90190010C01CA01A0011124FF275B
:100A7000591B99F0593F50F4503E68F11A16F04056
:100A8000A22F232F342F4427585FF3CF4695379555
:100A90002795A795F0405395C9F77EF41F16BA0B1A
:100AA000620B730B840BBAF09150A1F0FF0FBB1FC8
:100AB000661F771F881FC2F70EC0BA0F621F731F11
:100AC000841F48F4879577956795B795F7959E3F6E
:100AD00008F0B3CF9395880F08F09927EE0F9795FC
:100AE0008795089503D008F481E00895990F0008D0
:100AF000550FAA0BE0E8FEEF16161706E807F907F0
:100B0000C0F012161306E407F50798F0621B730B8A
:100B1000840B950B39F40A2661F0232B242B252B0B
:100B200021F408950A2609F4A140A6958FEF811DAE
:100B3000811D089597F99F6780E870E060E008954F
:100B40009FEF80EC089500240A94161617061806E5
:100B50000906089500240A941216130614060506C1
:100B60000895092E0394000C11F4882352F0BB0F52
:100B700040F4BF2B11F460FF04C06F5F7F4F8F4FB5
:100B80009F4F089557FD9058440F551F59F05F3FF0
:100B900071F04795880F97FB991F61F09F3F79F09F
:100BA00087950895121613061406551FF2CF469521
:100BB000F1DF08C0161617061806991FF1CF8695A3
:100BC0007105610508940895E894BB276627772787
:100BD000CB0197F90895EE0FFF1F0590F491E02DDA
:060BE0000994F894FFCF18
:00000001FF
