:100000000C9461000C9473000C9473000C947A01AE
:100010000C9473000C9446010C9437010C947300FB
:100020000C9473000C9473000C9473000C94730084
:100030000C9473000C9473000C9473000C94730074
:100040000C9473000C9473000C9413010C947300C3
:100050000C9473000C9473000C9473000C94730054
:100060000C9473000C9473001106FA05FD0500064C
:10007000040609060D06084AD73B3BCE016E84BC38
:10008000BFFDC12F3D6C74319ABD56833DDA3D00F2
:10009000C77F11BED9E4BB4C3E916BAAAABE00003B
:1000A00000803F05A84CCDB2D44EB93836A9020C19
:1000B00050B9918688083CA6AAAA2ABE00000080F2
:1000C0003F0011241FBECFEFD8E0DEBFCDBF21E03F
:1000D000A0E0B1E001C01D92A331B207E1F70E9498
:1000E00049070C94E80A0C94000014B884B18663A4
:1000F00084B9239A84B1806C84B915B8289A17B84A
:1001000087B18C6087B987B1806387B918B8469A80
:100110001AB8519A8AB18C608AB98AB180678AB953
:100120001BB8589A5F9A0895E8E6F0E080818560F0
:100130008083EDE6F0E0808180688083EBE6F0E08C
:100140008081816080837894089584B5836A84BDBA
:1001500085B5816085BD17BC18BCE0EBF0E08081FF
:10016000836A8083E1EBF0E080818160808310927C
:10017000B3001092B400089582E08093B80085E443
:100180008093BC000895F894A895E0E6F0E08081A3
:100190008861808386E48083789408951092C500F6
:1001A00083E38093C400E1ECF0E080818869808380
:1001B000E2ECF0E08081866080830895ECE7F0E077
:1001C000808180648083EAE7F0E0808186688083B4
:1001D000089581E08093110180930B011092120128
:1001E00088E08093030180E180930A0110920F015F
:1001F00010920D01109210011092040110920E0144
:100200001092020108950E9475000E94E9000E9468
:10021000A5000E94BC000E94CE000E94DE000E9449
:10022000C3000C9494001F920F920FB60F921124EA
:100230002F933F934F935F936F937F938F939F93EE
:10024000AF93BF93EF93FF930E946E06FF91EF91E0
:10025000BF91AF919F918F917F916F915F914F91DE
:100260003F912F910F900FBE0F901F9018951F92E6
:100270000F920FB60F9211248F9381E080930201A9
:100280008F910F900FBE0F901F9018951F920F9295
:100290000FB60F9211242F933F934F935F936F9359
:1002A0007F938F939F93AF93BF93EF93FF934F9958
:1002B00010C00E94C101811109C010920D018091EE
:1002C000100192E089278093100103C081E08093A0
:1002D0000401FF91EF91BF91AF919F918F917F9119
:1002E0006F915F914F913F912F910F900FBE0F90A3
:1002F0001F9018951F920F920FB60F9211242F93F3
:100300003F934F935F936F937F938F939F93AF939D
:10031000BF93CF93EF93FF9318990CC0C1E0C093A4
:100320000D0180910B01811105C00E94C101811155
:10033000C0930B01FF91EF91CF91BF91AF919F912E
:100340008F917F916F915F914F913F912F910F907E
:100350000FBE0F901F90189590917C008770987F2A
:10036000892B80937C0080917A00806480937A004E
:1003700080917A0086FDFCCF809178009091790081
:10038000089563E082E00E940E078F3F21F463E04E
:1003900082E00C940E07089562E082E00E940E074E
:1003A0008F3F21F462E082E00C940E07089565E12E
:1003B00082E00E940E078F3F21F465E182E00C94F9
:1003C0000E07089561E082E00E940E078F3F21F43E
:1003D00061E082E00E940E0780930C01853128F4D1
:1003E0008CE08093030180E0089581E0089564E04B
:1003F00082E00E940E078F3F21F464E082E00E94B9
:100400000E07882329F09AE09093030110920B01C4
:1004100008951F93CF93DF93EC0180E00E94AC011D
:10042000182F62E384E10E946E0528EE33E0211B61
:1004300031092883DF91CF911F9108958091110197
:10044000811103C085B1806C02C085B18F7385B9FD
:1004500008958F929F92AF92BF92CF92DF92EF92C8
:10046000FF920F931F93CF93DF934C017B0161E1C8
:1004700082E00E940E07C5E0D1E0888362E182E05D
:100480000E940E0796E0A92E91E0B92EF501808317
:1004900063E182E00E940E0727E0C22E21E0D22E07
:1004A000F601808364E182E00E940E0708E011E01B
:1004B000F801808388819981AA81BB81F4018083BE
:1004C0009183A283B3836DE082E00E940E0788834C
:1004D0006EE082E00E940E07F50180836FE082E00B
:1004E0000E940E07F601808360E182E00E940E0701
:1004F000F801808388819981AA81BB81F70180837B
:100500009183A283B383DF91CF911F910F91FF90CD
:10051000EF90DF90CF90BF90AF909F908F90089515
:100520001F93CF93DF9364E08CE30E940E07182F94
:1005300063E08CE30E940E07C82FDD27C7FDD0952E
:10054000DC2FCC27812F992787FD9095C82BD92B9D
:1005500068E08CE30E940E07182F67E08CE30E948E
:100560000E07682F772767FD7095762F6627812FF6
:10057000992787FD9095682B792BCE010E94BA0AA6
:10058000882777FD8095982F0E94CD08DF91CF9125
:100590001F910C9434084F925F926F927F928F92CA
:1005A0009F92AF92BF92CF92DF92EF92FF92CF9342
:1005B000DF93CDB7DEB760970FB6F894DEBF0FBEFE
:1005C000CDBF6D877E878F87988BBE016F5F7F4F12
:1005D000CE0105960E942902CD80DE80EF80F8844E
:1005E000C701B6010E9460084B015C01C701B6015A
:1005F0000E94490A2B013C0129813A814B815C818F
:1006000069EB7FE98FE99FE30E94CF076B017C01D3
:100610000E94600869877A878B879C8726EB3AEF70
:100620004BE55FEBC501B4010E94E6094B015C019B
:1006300023E730EF42E05FE3C301B2010E94E60925
:1006400029853A854B855C850E94E6099B01AC01B2
:10065000C501B4010E94CF074B015C01C701B6017F
:100660000E94490A23E730EF42E05FE30E94E60977
:100670006B017C01A5019401C501B4010E94E6094A
:100680002B013C01A7019601C701B6010E94E609B2
:100690009B01AC01C301B2010E94D0070E94530A22
:1006A000A50194010E94D0079B01AC01C701B601CE
:1006B0000E9463080E9434089B01AC010E94D0078D
:1006C0002D853E854F8558890E94CF0760960FB6CD
:1006D000F894DEBF0FBECDBFDF91CF91FF90EF90BA
:1006E000DF90CF90BF90AF909F908F907F906F9052
:1006F0005F904F9008958F929F92AF92BF92CF924A
:10070000DF92EF92FF924B015C01C12CD12C76015C
:10071000A5019401C701B6010E945C0887FF11C0C2
:100720008FEC97E00197F1F700C0000020E030E087
:1007300040E85FE3C701B6010E94D0076B017C016E
:10074000E7CFFF90EF90DF90CF90BF90AF909F905A
:100750008F9008951F93CF93DF9365E082E00E940E
:100760000E07D82F8F3F29F465E082E00E940E0724
:10077000D82F66E082E00E940E07C82F8F3F29F431
:1007800066E082E00E940E07C82F67E082E00E94C8
:100790000E07182F8F3F29F467E082E00E940E07B2
:1007A000182F80E00E94AC018533934058F00E94DE
:1007B0009B0560E070E08AE794E40E947B030E945E
:1007C000850510C081E00E94AC018533934020F183
:1007D0000E949B0560E070E08AE794E40E947B033E
:1007E0000E94900560E070E08AEF94E40E947B0331
:1007F0000E949B0560E070E08AE794E40E947B031E
:1008000084E10E94630560E070E08AE794E4DF9190
:10081000CF911F910C947B03DE3128F0CE3128F06C
:100820001E3130F00AC0DA3010F2CA3008F4BFCFFF
:100830001A3008F4BCCF82E301C084E6DF91CF9187
:100840001F910C946305CF92DF92EF92FF920E946A
:100850009B0560E070E08AE794E40E947B030E94BD
:1008600090020E94CB026B017C0120E030E0A901E4
:100870000E945C0887FF12C020E030E0A901C70198
:10088000B6010E94DB0987FD12C00E9490050E94FC
:1008900090020E94CB026B017C01EECF20E030E0A1
:1008A000A901C701B6010E94DB09181634F0FF90B8
:1008B000EF90DF90CF900C949B0520E030E0A901F1
:1008C000C701B6010E945C0818168CF30E948505CA
:1008D0000E9490020E94CB026B017C01EECFEF924E
:1008E000FF920F931F93CF93DF931F92CDB7DEB785
:1008F00019820E94230410E00E94C1018111B0C03E
:100900000E9416060E941A060E94E201111195C06B
:1009100065E082E00E940E07E82E2FEF821305C0EB
:1009200065E082E00E940E07E82E66E082E00E9409
:100930000E07F82E8FEFF81205C066E082E00E94E5
:100940000E07F82E67E082E00E940E07082F8F3F07
:1009500029F467E082E00E940E07082F84E60E94D7
:10096000630580E00E94AC018533934008F076C0B7
:1009700081E00E94AC018533934040F10E949B05C9
:1009800060E070E08AE794E40E947B0384E10E94C7
:100990007A0560E070E08AEF94E40E947B030E9495
:1009A0009B0560E070E08AE794E40E947B030E946C
:1009B000850581E00E94AC0185339340D0F780E04B
:1009C0000E94AC0185339340A0F796CF8DE18E1540
:1009D00028F48F1518F40E3108F08ECF82E30E94B0
:1009E000630529E02E1528F42F1518F40A3008F0B5
:1009F00083CF0E949B0560E070E08AE794E40E9448
:100A00007B030E94850560E070E08AEF94E40E9419
:100A10007B030E949B0560E070E08AE794E40E94FB
:100A20007B0384E10E94630560E070E08AE794E460
:100A30000E947B030E9423045FCF80E00E94AC01F0
:100A4000853F914008F455CF81E00E94AC01892B8D
:100A500009F44FCFCE0101960E94090211E04CCF5C
:100A60000F90DF91CF911F910F91FF90EF9008951C
:100A700068E082E00E940E078F3F21F468E082E088
:100A80000E940E078E31E8F084E10E947A0560E052
:100A900070E48CE995E40E947B030E949B0560E072
:100AA00070E08AE794E40E947B030E94850560E081
:100AB00070E08AEF94E40E947B030E949B0581E032
:100AC000089580E0089518BC1092B400880F87BD87
:100AD0008093B3008BB184618BB9089518BC1092D8
:100AE000B400880F87BD660F6093B3008BB184613B
:100AF0008BB9089517BC1092B300880F88BD8093FE
:100B0000B4008BB184618BB9089518BC1092B30006
:100B100088E287BD8093B4008BB184618BB908955E
:100B200017BC1092B40088E288BD8093B3008BB1EB
:100B300084618BB908958BB18B7E8BB917BC1092F1
:100B4000B30018BC1092B400089580911201823055
:100B5000E9F048F48823F1F18130E1F585B1897F2E
:100B600085B92C9A0895843031F1A8F0853091F53B
:100B700085B1897E85B92FEF84E39CE021508040C8
:100B80009040E1F700C000002C9A1AC085B18D7E1C
:100B900085B92A9A089585B1897E85B92FEF84E3B6
:100BA0009CE0215080409040E1F700C0000085B1FA
:100BB000866185B905C085B18B7E85B9299A08956E
:100BC0002FEF84E39CE0215080409040E1F700C08B
:100BD0000000089585B1897E85B90895809103014B
:100BE00090E0FC013897E730F105D8F4EC5CFF4F5A
:100BF0000C94CE0A2D9842980EC02D9843980FC0A1
:100C00002D9888B18C6010C088B1837F88B92D9AE7
:100C1000089542982D9A439A089543982D9A429A9E
:100C200008952D9888B1837F88B908950E94A505FD
:100C30000C94EE05809112010E943B078091030104
:100C40000E943B0780910C010C943B0761E182E01C
:100C50000E940E070E943B0762E182E00E940E079D
:100C60000E943B0763E182E00E940E070E943B075F
:100C700064E182E00E940E070E943B076DE082E083
:100C80000E940E070E943B076EE082E00E940E0762
:100C90000E943B076FE082E00E940E070E943B0724
:100CA00060E182E00E940E070E943B0769E082E05B
:100CB0000E940E070E943B076AE082E00E940E0736
:100CC0000E943B076BE082E00E940E070E943B07F8
:100CD0006CE082E00E940E070C943B07CF9380915A
:100CE000C60080930A01823169F08331C9F08131F5
:100CF000D1F410920D018091100192E08927809328
:100D0000100111C0C1E0C0930D0180910B01811150
:100D10000AC00E94C101882331F0C0930B0103C0B7
:100D200081E080930401CF91089584EA8093BC0010
:100D30008091BC0087FFFCCF909102018091B900A7
:100D4000887F883011F09923C9F3089584EA80934D
:100D5000BC008091BC0087FFFCCF90910201809184
:100D6000B900887F803111F09923C9F30895860F67
:100D70008093BB0084E88093BC008091BC0087FF17
:100D8000FCCF90910201662351F08091B900887FD9
:100D9000803451F09923C9F30895911105C08091D1
:100DA000B900887F8831C9F708958093BB0084E833
:100DB0008093BC008091BC0087FFFCCF9091020122
:100DC0008091B900887F883211F09923C9F3089582
:100DD00084E88093BC008091BC0087FFFCCF909199
:100DE00002018091B900887F803511F09923C9F301
:100DF0008091BB00089584E88093BC008091BC0082
:100E000087FFFCCF909102018091B900887F8835DF
:100E100011F09923C9F38091BB000895CF93DF931C
:100E2000C82FD62F80910201811110920201A8953E
:100E30000E94950660E08C2F0E94B7068D2F0E94BD
:100E4000D5060E94A60661E08C2F0E94B7060E947C
:100E5000FB0694E99093BC0090910201992319F04C
:100E6000109202018FEFA895DF91CF91089584E948
:100E70008093BC0008959091C00095FFFCCF8093B3
:100E8000C60008958091C00087FFFCCF8091C60006
:100E900008950E94030180911001811101C0FFCFCC
:100EA0001092100102E0C1E085E0F82ED8E094E055
:100EB000E92E19E023E0D22EA8950E9416060E9482
:100EC0001A060E941E020E94C101882379F1C09374
:100ED00011010E949B050E94CC01882389F0D092C9
:100EE000120180910401882339F380910B01813034
:100EF00019F78093120110920D01109204010AC09B
:100F00000E94D701882379F080910B01813059F438
:100F100010920D01D09303010E9438058111CCCFAE
:100F200010930301C9CFE0921201C6CF8091100146
:100F3000882369F080910D01811109C0F09212019E
:100F4000C0931101D09303010E949B05B5CF0E946D
:100F5000E2010E94E2018823B9F00E94F7018111A9
:100F600013C00E94D701882379F080911001882353
:100F700021F080910D01811107C0C09312011092E0
:100F800011010E94AA0398CF00931201C09311018E
:100F90000E946F0410920D01109210018DCF5058D5
:100FA000BB27AA270ED0BCC185D130F08AD120F052
:100FB00031F49F3F11F41EF455C10EF4E095E7FBA8
:100FC0004BC1E92FCFD180F3BA17620773078407AB
:100FD000950718F071F49EF5E7C10EF4E0950B2E1D
:100FE000BA2FA02D0B01B90190010C01CA01A0017B
:100FF0001124FF27591B99F0593F50F4503E68F1D6
:101000001A16F040A22F232F342F4427585FF3CF16
:10101000469537952795A795F0405395C9F77EF4E7
:101020001F16BA0B620B730B840BBAF09150A1F030
:10103000FF0FBB1F661F771F881FC2F70EC0BA0FB6
:10104000621F731F841F48F4879577956795B7953E
:10105000F7959E3F08F0B3CF9395880F08F0992736
:10106000EE0F979587950895DF93DD27B92FBF770A
:1010700040E85FE31616170648075B0710F4D92F00
:101080009ED19F938F937F936F934BD2E6E7F0E0CF
:10109000ECD046D12F913F914F915F91A3D1DD23A9
:1010A00049F09058A2EA2AED3FE049EC5FE3D0789E
:1010B0005D2787DFDF9134C1ABD008F481E008956C
:1010C00008D1E3953EC10CD02BC1FBD040F0F2D04B
:1010D00030F021F45F3F19F0BFC0511166C1C2C0AA
:1010E00041D198F39923C9F35523B1F3951B550BBF
:1010F000BB27AA2762177307840738F09F5F5F4FEB
:10110000220F331F441FAA1FA9F333D00E2E3AF02B
:10111000E0E830D091505040E695001CCAF729D045
:10112000FE2F27D0660F771F881FBB1F2617370794
:101130004807AB07B0E809F0BB0B802DBF01FF27C4
:1011400093585F4F2AF09E3F510568F085C02DC12E
:101150005F3FECF3983EDCF3869577956795B795FE
:10116000F7959F5FC9F7880F911D9695879597F919
:101170000895E1E0660F771F881FBB1F6217730792
:101180008407BA0720F0621B730B840BBA0BEE1FA7
:1011900088F7E0950895E89409C097FB3EF4909590
:1011A0008095709561957F4F8F4F9F4F9923A9F040
:1011B000F92F96E9BB279395F695879577956795CF
:1011C000B795F111F8CFFAF4BB0F11F460FF1BC013
:1011D0006F5F7F4F8F4F9F4F16C0882311F096E9A6
:1011E00011C0772321F09EE8872F762F05C0662354
:1011F00071F096E8862F70E060E02AF09A95660F0D
:10120000771F881FDAF7880F9695879597F90895C5
:10121000990F0008550FAA0BE0E8FEEF1616170607
:10122000E807F907C0F012161306E407F50798F06F
:10123000621B730B840B950B39F40A2661F0232B88
:10124000242B252B21F408950A2609F4A140A69504
:101250008FEF811D811D089597F99F6780E870E0E9
:1012600060E008959FEF80EC0895DF93CF931F9384
:101270000F93FF92EF92DF927B018C01689405C07F
:10128000DA2EEF01AFD0FE01E894A59125913591BA
:1012900045915591AEF3EF0194DEFE019701A8014F
:1012A000DA9479F7DF90EF90FF900F911F91CF9133
:1012B000DF91089500240A941616170618060906E9
:1012C000089500240A9412161306140605060895BC
:1012D000C9CF50D0E8F3E894E0E0BB279F57F0F087
:1012E0002AED3FE049EC06C0EE0FBB0F661F771FEB
:1012F000881F28F0B23A62077307840728F0B25AB1
:10130000620B730B840BE3959A9572F7803830F477
:101310009A95BB0F661F771F881FD2F7904806C1AA
:10132000092E0394000C11F4882352F0BB0F40F4F3
:10133000BF2B11F460FF04C06F5F7F4F8F4F9F4F33
:101340000895EF93E0FF06C0A2EA2AED3FE049ECE2
:101350005FEB37DEE5DF0F90039401FC9058E3EA82
:10136000F0E0F7C057FD9058440F551F59F05F3F0C
:1013700071F04795880F97FB991F61F09F3F79F0B7
:1013800087950895121613061406551FF2CF469539
:10139000F1DF08C0161617061806991FF1CF8695BB
:1013A0007105610508940895E894BB27662777279F
:1013B000CB0197F908952CDF08F48FEF08959B0176
:1013C000AC0160E070E080E89FE37DCE0BD0A8CF59
:1013D00071DF28F076DF18F0952309F03DCF42CF7A
:1013E0001124E3CFBFDFA0F3959FD1F3950F50E019
:1013F000551F629FF001729FBB27F00DB11D639FC7
:10140000AA27F00DB11DAA1F649F6627B00DA11D6C
:10141000661F829F2227B00DA11D621F739FB00D12
:10142000A11D621F839FA00D611D221F749F332782
:10143000A00D611D231F849F600D211D822F762F1B
:101440006A2F11249F5750408AF0E1F088234AF018
:10145000EE0FFF1FBB1F661F771F881F9150504064
:10146000A9F79E3F510570F0F7CE9FCF5F3FECF399
:10147000983EDCF3869577956795B795F795E79550
:101480009F5FC1F7FE2B880F911D9695879597F961
:1014900008959F931EDF0F9007FCEE5F52CF11F46B
:1014A0000EF4E0CE41C066DFD0F39923D9F3CEF33A
:1014B0009F57550B87FF46D00024A0E640EA9001D5
:1014C00080585695979528F4805C660F771F881F83
:1014D00020F026173707480730F4621B730B840B84
:1014E000202931294A2BA6951794079420253125C8
:1014F0004A2758F7660F771F881F20F026173707EF
:10150000480730F4620B730B840B200D311D411D15
:10151000A09581F7B901842F9158880F96958795EA
:1015200008959B01AC0152CF9F3F31F0915020F4C0
:10153000879577956795B795880F911D96958795AF
:1015400097F9089591505040660F771F881FD2F782
:1015500008959F938F937F936F93FF93EF939B01D6
:10156000AC0134DFEF91FF9180DE2F913F914F91DD
:101570005F912CCF97FB072E16F4009407D077FDD0
:1015800009D00E94D40A07FC05D03EF490958195BD
:101590009F4F0895709561957F4F0895EE0FFF1F3F
:1015A0000590F491E02D0994AA1BBB1B51E107C0E3
:1015B000AA1FBB1FA617B70710F0A61BB70B881FE3
:1015C000991F5A95A9F780959095BC01CD01089572
:0415D000F894FFCFBD
:00000001FF
